:020000040800F2
:1000000000000120891B00080508000807080008F7
:10001000090800080B0800080D080008000000008F
:100020000000000000000000000000009117000820
:100030000F08000800000000F1170008451A00082A
:10004000CD1B0008CD1B0008CD1B0008CD1B0008F0
:10005000CD1B0008CD1B0008CD1B0008CD1B0008E0
:10006000CD1B0008CD1B0008CD1B0008CD1B0008D0
:10007000CD1B0008CD1B0008CD1B0008CD1B0008C0
:10008000CD1B0008CD1B0008CD1B0008CD1B0008B0
:10009000CD1B0008CD1B0008CD1B0008CD1B0008A0
:1000A000CD1B0008CD1B0008CD1B0008CD1B000890
:1000B000CD1B0008CD1B0008CD1B0008CD1B000880
:1000C000CD1B0008CD1B0008CD1B0008CD1B000870
:1000D000CD1B0008251B0008CD1B0008CD1B000808
:1000E000CD1B0008CD1B0008CD1B0008CD1B000850
:1000F000CD1B0008CD1B0008CD1B0008CD1B000840
:10010000CD1B0008CD1B0008CD1B0008CD1B00082F
:10011000CD1B0008CD1B0008CD1B0008CD1B00081F
:10012000CD1B0008CD1B0008CD1B0008CD1B00080F
:1001300000000000000000000000000000000000BF
:1001400000000000000000000000000000000000AF
:10015000000000000000000000000000000000009F
:10016000000000000000000000000000000000008F
:10017000000000000000000000000000000000007F
:10018000000000000000000000000000000000006F
:10019000000000000000000000000000000000005F
:1001A000000000000000000000000000000000004F
:1001B000000000000000000000000000000000003F
:1001C000000000000000000000000000000000002F
:1001D000000000000000000000000000000000001F
:0401E0005FF8E0F1F3
:1001F0000348044B834202D0034B03B118477047B6
:100200002000002020000020000000000548064BD0
:100210001B1AD90F01EBA301491002D0034B03B104
:100220001847704720000020200000200000000038
:1002300010B5064C237843B9FFF7DAFF044B13B12E
:100240000448AFF300800123237010BD200000207C
:1002500000000000FC1B000808B5054B1BB1054958
:100260000548AFF30080BDE80840FFF7CFBF00BFEF
:100270000000000024000020FC1B000882B00023C6
:10028000019300932C4A136843F4803313602A4B84
:100290001B6803F400330093019B01330193009B1F
:1002A0001BB9019BB3F5A06FF1D1234B1B6813F46D
:1002B000003F06D001230093009B012B04D002B025
:1002C000704700230093F7E71C4B1A6842F01002B6
:1002D0001A601A6822F003021A601A6842F00202D9
:1002E0001A60A3F580535A685A605A685A605A686F
:1002F00042F480625A605A6822F47C125A605A684A
:1003000042F4E8125A601A6842F080721A600A4B8E
:100310001B6813F0007FFAD0074B5A6822F00302E3
:100320005A605A6842F002025A60034B5B6803F05D
:100330000C03082BF9D1C2E7001002400020024054
:1003400008B5FFF79BFF08BD08B5104B1A6842F0CF
:1003500001021A6059680E4A0A405A601A6822F06F
:10036000847222F480321A601A6822F480221A60A1
:100370005A6822F4FE025A604FF41F029A60FFF797
:10038000DFFF044B4FF000629A6008BD001002408E
:100390000000FFF800ED00E040F0BF6040F40030E6
:1003A000014BD860704700BF00ED00E0C378F3B1A7
:1003B000144BDB68DB43C3F30223C3F1040C0F21AE
:1003C000D940427802FA0CF283780B4013431B01A8
:1003D0000278DBB20C490A4482F80033037803F058
:1003E0001F005B090122824041F8232070470378F7
:1003F00003F01F015B0901228A402033024941F8C2
:100400002320704700ED00E000E100E0042806D062
:100410004FF0E022136923F00403136170474FF09B
:10042000E022136943F004031361704730B5CB78C1
:1004300003F00F02964613F0100F03D091F802E07C
:100440004EEA020E0B78FBB10568002301E0426121
:100450000133072B17D801229A40B1F800C032EAC5
:100460000C0CF5D19C004FF00F0C0CFA04FC25EAA3
:100470000C050EFA04F42543CC78282CE7D0482C40
:10048000E6D10261E4E705600B88FF2B25D94568BA
:10049000002303E0CC78482C1CD00133072B1BD859
:1004A00003F1080C012202FA0CF2B1F800C032EAA2
:1004B0000C0CF2D19C004FF00F0C0CFA04FC25EA56
:1004C0000C0C0EFA04F444EA0C05CC78282CE1D18B
:1004D0004261DFE70261E0E7456030BD01617047DE
:1004E00010B4294B5B6803F00C03042B2BD0082BB2
:1004F0002CD013B1254B036001E0244B036022494B
:100500004B68C3F30313224CE25CD2B20368D340BE
:1005100043604A68C2F30222A25CD2B223FA02F21A
:1005200082604A68C2F3C222A25CD2B2D340C360E6
:100530004A68C2F3813217498A5CD2B2B3FBF2F344
:10054000036110BC7047114B0360D8E70E4A536833
:100550005268C3F38343023312F4803F04D10E4A3E
:1005600002FB03F30360CAE7074A526812F4003F34
:1005700004D0094A02FB03F30360C0E7034A02FB0D
:1005800003F30360BBE700BF0010024000127A00D3
:10059000080000200400002000093D0021B1054AA8
:1005A0009369034393617047024A936923EA000306
:1005B000936170470010024030B587B004460D4685
:1005C000038A9BB2CA8823F440531343038283896E
:1005D0009BB2898828896A8901430A4323F4B0536E
:1005E00023F00C031343A381A38A9BB2AA8923F4AB
:1005F00040731343A38201A8FFF772FF1D4B9C4277
:1006000024D0039BA28912F4004F21D103EB830372
:1006100003EB83032A689200B3FBF2F3164AA2FBB2
:10062000031252091101642002FB1033A28912F453
:10063000004F16D11B0132330F4AA2FB0323C3F331
:1006400043130B439BB2238107B030BD049BD9E712
:1006500003EB830303EB83032A685200B3FBF2F33B
:10066000DCE7DB003233044AA2FB0323C3F342136B
:100670000B43E7E7003801401F85EB5129B183891F
:100680009BB243F400538381704783899BB223F468
:1006900000539BB283817047C1F3421C01F01F01DC
:1006A00001238B40BCF1010F08D0BCF1020F07D031
:1006B00014303AB102681343036070470C30F8E716
:1006C0001030F6E7026822EA03030360704780886F
:1006D000C0F308007047C1F3421201F01F0C012360
:1006E00003FA0CF3012A0FD0022A11D0828A92B2A7
:1006F0001340090A012202FA01F1028892B20A406B
:1007000053B15AB900207047828992B21340F0E782
:10071000028A92B21340ECE7002070470120704734
:1007200007B501F047F80E4B3222019302230D4921
:1007300000930D48002300F0BDFA0C4B32220193C8
:1007400003230B4900930B48002300F0B3FA0A4B34
:10075000186800F089FB03B05DF804EB01F03AB8CB
:1007600040000020141C00087D0700083C00002009
:100770001E1C0008990700084400002008B5054C1D
:10078000D4F89431C820DB43C4F8943100F04EFD16
:10079000F6E700BF00802142002508B5064C642022
:1007A000C4F8945100F042FD01236420C4F8943150
:1007B00000F03CFDF3E700BF0000234207B501F065
:1007C0004BF900F025F84FF44070FFF7E5FD4FF4CA
:1007D000E13001F067F9084B8022019301230749BA
:1007E00000930748002300F065FA00F09FFB00200B
:1007F00003B05DF804FB00BF44000020281C000883
:10080000210700087047FEE7FEE7FEE7FEE77047B6
:1008100030B583B001214820FFF7C0FE2024ADF899
:10082000044010238DF8073003238DF806300B4D5C
:1008300001A92846FFF7FAFD21462846FFF74EFE9C
:10084000ADF8044005F5406501A92846FFF7EEFD27
:1008500021462846FFF742FE03B030BD000C0140A0
:100860004FF0FF3200F10803C0E902234360036147
:1008700000230360704700230361704743689A6850
:100880004B608A60516099600368086101330360BE
:10089000704730B50C68631C0AD103695A684A6016
:1008A00091608B605960036808610133036030BD5B
:1008B00000F10802134652681568A542FAD9EDE71F
:1008C0000369D0E901128A6051605968814208BF0A
:1008D0005A60002202611A68013A1A60186870476B
:1008E00010B5044600F066FFA46B00F073FFB4FA85
:1008F00084F0400910BD03461A6C084610B462B17A
:10090000DC68996814448C4228BF1968DC6028BFF1
:10091000D960D96810BC01F062B910BC704770B5DD
:10092000044600F047FF94F8455004F124066DB2E8
:10093000002D14DCFF2384F8453000F04BFF00F05D
:1009400039FF94F8445004F110066DB2002D12DC0A
:10095000FF2384F84430BDE8704000F03BBF636A79
:10096000002BE7D0304600F0DBFC08B100F068FD5A
:10097000013D6DB2DCE72369002BE9D0304600F081
:10098000CFFC08B100F05CFD013D6DB2DEE770B553
:100990000E46044610B3C06B00B3236CA3FB0035B6
:1009A000DDB900F007FFD4E90F314B432268A5639E
:1009B000D0185B1A62601A44FF23A06084F84430A8
:1009C000E26084F8453056B104F11000FFF748FFAB
:1009D00004F12400FFF744FF12E0002070BD2369FA
:1009E00073B104F1100000F09BFC48B14FF0E0231C
:1009F0004FF08052C3F8042DBFF34F8FBFF36F8FBA
:100A000000F0E8FE0120E9E770B50D46064610B992
:100A10000024204670BDA1FB0023002BF8D14843E1
:100A200010F1490FF4D8483000F06CFF044600285C
:100A3000EED04DB100F1480301212046C4E90F6515
:100A40002360FFF7A4FFE4E70346F5E7F0B50446AB
:100A500085B00E46019200F0ADFEA56BDDB13146CA
:100A60002046013DFFF747FFA563236973B104F1F9
:100A7000100000F055FC48B14FF0E0234FF08052D9
:100A8000C3F8042DBFF34F8FBFF36F8F00F0A2FEAA
:100A9000012005B0F0BD019B1BB900F09BFE0020BA
:100AA000F7E702A800F098FC2F4600F093FE00F054
:100AB00073FA00F07FFE94F84430FF2B08BF84F8EF
:100AC000447094F84530FF2B08BF84F8457000F05F
:100AD00081FE01A902A800F08BFC38BB2046FFF77D
:100AE000FFFEE8B1019904F1240000F0E7FB204685
:100AF000FFF715FF00F008FB48B94FF0E0234FF077
:100B00008052C3F8042DBFF34F8FBFF36F8F00F0F7
:100B100051FEA56B002DA2D1019B002BC5D1BCE7D6
:100B20002046FFF7FCFE00F0EFFAF0E72046FFF763
:100B3000F6FE00F0E9FA2046FFF7D2FE0028E6D0E4
:100B4000ADE770B504460D46164600F033FE94F846
:100B50004430FF2B04BF002384F8443094F8453020
:100B6000FF2B04BF002384F8453000F033FEA36B55
:100B70002BB93246294604F1240000F0AFFB204691
:100B8000BDE87040FFF7CBBEF8B5204B204C0646C1
:100B90001D6820680F460430FFF792FE40B92268B6
:100BA0001C49D06A01220B68824023EA02030B60D1
:100BB000731C13D197B1184B21685A688A609068EA
:100BC0002168C86021680431416021680431916066
:100BD000226853611A6801321A60F8BD2368AD19A2
:100BE0005D6007D30D4B18682168BDE8F8400431FB
:100BF000FFF74FBE0A4B186821680431FFF749FE22
:100C0000084B1A68AA4288BF1D60E6E76C00002006
:100C1000640300206800002074000020B40000205D
:100C2000B800002050000020064A13681968064BDF
:100C300019B94FF0FF321A6070471268D268126813
:100C4000F9E700BFB80000205000002080B5154C27
:100C5000154F164E236873B9154B1B68012BF8D935
:100C60004FF0E0234FF08052C3F8042DBFF34F8FB5
:100C7000BFF36F8FEDE700F09DFDFB68DD68281D79
:100C8000FFF71EFE3368013B33602368013B23609E
:100C900000F0A0FD286B00F0AFFE284600F0ACFE8F
:100CA000D8E700BF880000208C00002070000020E2
:100CB000E40000202DE9F0474FEA820A074650463B
:100CC0000E469846DDF8249000F01CFE054618B943
:100CD0004FF0FF30BDE8F087542000F013FE0446CB
:100CE000002800F0A28054220021AAF1040A00F09A
:100CF0006EFF2563554425F007056EB1731E04F1A0
:100D000033020F3613F8011F02F8011F09B1B34275
:100D1000F8D1002384F84330089E04F1040A1F2E02
:100D200028BF1F265046E6626664FFF7A4FDC6F1A1
:100D3000200604F11800FFF79EFD4246394628467A
:100D40002461A661646200F011FD2060B9F1000F1A
:100D500001D0C9F8004000F02DFD364B364E1A6820
:100D6000364F01321A603568002D53D134601B684C
:100D7000012B1FD1B84640460135FFF771FD202DEC
:100D800008F11408F7D1DFF8B8802E4D4046FFF780
:100D900067FD2846FFF764FD2B48FFF761FD2B48F0
:100DA000FFF75EFD2A48FFF75BFD2A4BC3F8008082
:100DB000294B1D60294A2A491368086801331360CA
:100DC0000122E36A9A4002430A6014225343F9184D
:100DD0004A689068A260E060C0F804A0C2F808A069
:100DE000FA5861610132FA5000F0F4FC1D4B1B68A7
:100DF00073B13368DA6AE36A9A4209D24FF0E023AA
:100E00004FF08052C3F8042DBFF34F8FBFF36F8FA5
:100E100001205FE7134B1A68E36A002ACAD13268DF
:100E2000D26A9A4298BF3460C4E7284600F0E4FDD5
:100E30004EE700BF7000002064030020E4000020A3
:100E4000D0000020BC000020A00000208C0000206A
:100E500074000020B8000020B400002054000020DE
:100E6000680000206400002070B50446274D00F0A3
:100E7000A1FC04B92C68261D3046FFF721FD60B99E
:100E80001423E06A224A4343D35833B9012221494B
:100E900082400B6823EA02030B60A36A1BB104F1D2
:100EA0001800FFF70DFD1C4A1368013313602B680F
:100EB000A34223D131461948FFF7E0FC184A1368D2
:100EC0000133136000F086FC2B68A34205D0206B31
:100ED00000F092FD204600F08FFD124B1B6863B1BD
:100EE0002B68A34209D14FF0E0234FF08052C3F8A2
:100EF000042DBFF34F8FBFF36F8F70BD0A4A136885
:100F0000013B1360FFF790FEDCE700BF64030020A5
:100F1000E400002068000020540000208C00002025
:100F200088000020640000207000002013B5002419
:100F3000124B802201931249234612480094FFF776
:100F4000B9FE012815D100F0D5FB012811D14FF0D1
:100F5000BF0383F31188BFF36F8FBFF34F8F4FF041
:100F6000FF32094B1A60094B1860094B1C6000F0F6
:100F700083FC084B1B6802B010BD00BF4C00002072
:100F8000331C00084D0C00085000002064000020B5
:100F90006C00002018000020024A1368013313601F
:100FA000704700BF48000020014B1868704700BF21
:100FB0006C0000202DE9F84F484B1B68002B40F0D7
:100FC0008680474B1C6801341C605CB9454A464B1F
:100FD000116818681060454A19601368013313607E
:100FE000FFF722FEDFF808C10020DCF80030414A9C
:100FF0009C42DFF804910FD21421D9F80030DB6A4B
:101000004B43D358022B3D4B28BF01201B68002BBC
:1010100018BF0120BDE8F88FDFF8C880DFF8E0E0F6
:10102000D8F800301B6823B94FF0FF33CCF80030FC
:10103000E2E7D8F80030DB68DB6859688C4202D2FE
:10104000CCF80010D8E75D69D3E902168E607160B4
:1010500069681F1DB9424FF0000108BF6E605961F9
:101060002968013929609D6A7DB1D3E907168E6030
:101070007160696803F1180A51454FF0000108BF1B
:101080006E6099622968013929600125D96ADEF804
:1010900000608D403543CEF8005014254D4302EBDF
:1010A000050ADAF80460D6F808B09E60C3F80CB000
:1010B000CBF80470B760C3F814A0535901335351EF
:1010C000D9F80030DB6A994288BF0120A8E70D4AB1
:1010D00000201368013313609CE700BF4800002024
:1010E0006C000020B8000020B40000205800002050
:1010F00050000020E4000020640300205C00002079
:1011000068000020600000202DE9F84F00F052FB3D
:101110003E4B1A68013A1A601B682BB1002400F09C
:1011200059FB2046BDE8F88F394A1268002AF5D0ED
:101130004FF0010C4FF0140E364E374F374ADFF8A0
:10114000E080DFF8E0903FE0F368DB68986AD3E97D
:1011500007148C606160416803F11805A9424FF0E3
:10116000000108BF44609962016801390160586953
:10117000D3E902148C60616041681D1DA9420168B9
:1011800008BF446001390160D96A3C680CFA01F07B
:10119000204338600EFB01F002EB000ADAF804404D
:1011A000D4F808B09C60C3F80CB0CBF80450A5602C
:1011B0001458C3F814A001341450D8F80000C06AC1
:1011C000814201D3C9F800C031680029BCD10BB1FC
:1011D000FFF72AFD144D2C6844B10127114EFFF78B
:1011E000E9FE00B13760013CF9D12C600D4B1B6862
:1011F000002B93D04FF0E0234FF08052C3F8042D22
:10120000BFF34F8FBFF36F8F012488E748000020A2
:1012100070000020A000002068000020E4000020F2
:10122000640300205C0000206000002008B550B975
:101230004FF0E0234FF08052C3F8042DBFF34F8FDF
:10124000BFF36F8F08BD0021FFF7A6FEFFF79CFCE0
:10125000FFF75AFF0028EBD0F4E70000124B30B53F
:101260001A68124B12B101221A6030BD1A60104B7D
:101270001B68B3FA83F31425DBB2C3F11F0305FB2C
:1012800003F20C4988184468083264680A4494429E
:1012900005FB031108BF6268446008BF42604B68E9
:1012A000DA68054BE0E700BF480000205C00002042
:1012B00068000020E40000206403002010B50C4604
:1012C000054B19681831FFF7E4FA2046BDE81040D5
:1012D0000121FFF759BC00BF640300200F4B70B41D
:1012E00044681D68A668EC611D68002A2E621D68AE
:1012F00005F1180575601D681B6805F11805A560E6
:101300009862036870BC03F1010303600CBF0846D8
:101310004FF0FF301146FFF737BC00BF64030020D9
:10132000C368F0B5DB689A6AD3E907018160486059
:10133000506803F11804A04208BF5160002199626F
:101340001168013911601E4AD96A1268002A2AD12F
:10135000D3E902405A69A060446054681D1DAC4244
:1013600008BF5060106801381060012215488A409B
:1013700004682243026014224A43134886187468A2
:10138000A7689C60DF607D60A5605E618358013363
:1013900083500E4B1B68DB6A994285BF01200C4BC2
:1013A00000201860F0BD0B4A50688568D8611D6246
:1013B0006C6084609A62136801331360E9E700BFD0
:1013C0004800002068000020E400002064030020A2
:1013D0005C000020A0000020034B1B680360034B4F
:1013E0001B684360704700BF580000206C0000205D
:1013F00070B50D46044600F0DDF90F4B19682B68F7
:101400005A1C17D00D48266800686268864208D0CA
:101410008A4206D8002301242B6000F0DBF9204625
:1014200070BD881A8342F5D95B1A134420462B609D
:10143000FFF7D2FF0024F0E76C00002058000020E6
:101440000122014B1A6070475C000020054B1B68AD
:1014500033B1054B1868B0FA80F04009400070477E
:10146000012070476400002048000020914208B528
:10147000416000610AD8D21A83699A420DD2084BA2
:10148000011D1868FFF705FA002008BD9A4201D235
:10149000994202D2034B011DF3E70120F5E700BF9B
:1014A000740300207803002070B504460D461646EC
:1014B000A1692B46324620462944FFF7D7FF00B9E1
:1014C00070BDA36920461D44236A9847F0E70000D9
:1014D0000E4B70B51B680546DB680E46DC68201DA8
:1014E000FFF7EEF994F824305A0709D53246294619
:1014F0002046FFF7D9FF2046236ABDE87040184711
:1015000023F0010384F82430F5E700BF78030020BE
:10151000F8B50546FFF748FD0D4E04463368834293
:1015200009D90C4F3B681A6852B90B4A116813600D
:101530003960012300E0002320462B603460F8BDB1
:10154000DB684FF0FF311868FFF7C2FFEAE700BF22
:101550006803002078030020740300202DE9FF4178
:101560004E4F4F4E3B68D3F80080B8F1000F34D097
:101570000024DB68D3F80080FFF70EFD01A8FFF719
:10158000C7FF019B0546002B44D144BB40452CD3EB
:10159000FFF7BAFD29464046FFF79AFF0022306860
:1015A00001A9FFF753FA0028DCD0019B002BF5DBE3
:1015B000039C636913B1201DFFF782F96846FFF7AA
:1015C000A7FF019B0546013B082BE7D8DFE803F0A6
:1015D0002525484F5E2525484F000124CCE7314B97
:1015E0001B681C68B4FA84F4640922463068A8EBCE
:1015F0000501FFF7A6FAFFF787FD0028CED14FF0CF
:10160000E0234FF08052C3F8042DBFF34F8FBFF398
:101610006F8FC3E7FFF778FDC0E794F82430A16926
:1016200043F0010384F82430029B0246194420460B
:10163000FFF71CFF0028B1D094F8243059070AD5D1
:10164000A36902992A4620461944FFF72DFF204638
:10165000236A9847A2E723F0010384F82430F6E7D1
:1016600094F8243023F0010384F8243096E794F8AA
:101670002430024643F0010384F8243002990346E3
:10168000A16101442046FFF7F1FE87E794F824307A
:101690009A07E7D4204600F0AFF97FE778030020EF
:1016A0007003002074030020F8B50D4C00F082F8A0
:1016B00025688DB90B4F0C4E3846FFF7D1F83046F0
:1016C000FFF7CEF8094B2A461F60094B0C21052075
:1016D0001E60FFF799F92060BDE8F84000F07AB885
:1016E00070030020900300207C030020780300207A
:1016F0007403002007B5FFF7D7FF084B186850B1F7
:10170000074B4FF4807201931F230649009306484C
:101710000023FFF7CFFA03B05DF804FB700300204D
:101720006C030020381C00085D150008002382B0FF
:1017300001934FF0BF0383F31188BFF36F8FBFF3A3
:101740004F8F019B002BFCD002B070470648006809
:10175000006880F3088862B661B6BFF34F8FBFF3AD
:101760006F8F00DF00BF000008ED00E04FF08073D6
:1017700040F8043C054B21F0010140F8081C40F8FA
:101780000C3C40F8202C4038704700BF2D17000853
:10179000074B19680868B0E8F00F80F30988BFF3B9
:1017A0006F8F4FF0000080F311884EF00D0E7047E0
:1017B000640300204FF0BF0383F31188BFF36F8FE2
:1017C000BFF34F8F024A136801331360704700BFA5
:1017D0001C000020034A1368013B13600BB983F31C
:1017E000118870471C00002000000000000000006D
:1017F000EFF30980BFF36F8F0D4B1A6820E9F00FEC
:1018000010602DE908404FF0BF0080F31188FFF70A
:1018100025FD4FF0000080F31188BDE808401968ED
:101820000868B0E8F00F80F30988BFF36F8F704746
:101830006403002008B54FF0BF0383F31188BFF3A2
:101840006F8FBFF34F8FFFF7B5FB28B14FF0E02349
:101850004FF08052C3F8042D002383F3118808BD94
:101860004FF0E02300221A619A61024A5A6107226E
:101870001A6170473F1901004FF0E02310B50024B2
:10188000D3F8202D42F47F02C3F8202DD3F8202D69
:1018900042F07F42C3F8202DFFF7E2FF044B1C60AB
:1018A000FFF754FFFFF7DAFCFFF740FF204610BDBB
:1018B0001C00002030B5114B1A461B688342FBD335
:1018C000546841681519A84206D121445018834232
:1018D000516010D1104602E04418A3420CD1084CCC
:1018E0002468A3421FBF5C68641844601C680460DD
:1018F000824218BF106030BD0360F9E7B4030020D6
:10190000B00300202DE9F0410446FFF745FB3449C0
:10191000344D0B680BBB344A344E50071FBFD01DEB
:1019200020F0070002F52052131A0CBF4FF4205389
:10193000024600201344083B23F007037060326026
:10194000C3E90000981AC2E900300B60284B186008
:10195000284B18604FF000432B602F6827423DD181
:10196000002C33D004F1080362071CBF23F00703E7
:101970000833002B32D0DFF87C80D8F800609E421C
:101980002CD31A4A15686868984201D22C6814BB97
:101990000968A94222D0296814681160C21A102A65
:1019A00004F1080404D9E81842606B60FFF782FF75
:1019B00000230F496A680868B61A864247EA020798
:1019C000C8F8006038BF0E606F602B60FFF79CFBAB
:1019D0002046BDE8F0812A462546D4E70024F5E7F5
:1019E000B0030020A4030020BC030020B4030020A7
:1019F000A8030020AC03002010B50446E0B10F4A54
:101A000050F8043C1268134216D050F8081C99B9DB
:101A100023EA020340F8043CFFF7BEFA084A54F8F0
:101A2000043C1168A4F108000B441360FFF742FF67
:101A3000BDE81040FFF768BB10BD00BFA403002045
:101A4000AC03002008B5FFF701FD012803D0BDE875
:101A50000840FFF7EFBE08BD08B50420FEF7D6FC2E
:101A60000C4B0D4A1B680121B3FBF2F30B4A1370B8
:101A70004FF47A7253430A4A11804FF0E022116901
:101A800041F0020111615361136943F001031361D5
:101A900008BD00BF0000002040420F00BE2B002008
:101AA000BC2B002030B5012187B00446194D44F20B
:101AB0000400FEF773FD184B694628460093FEF7B5
:101AC000B5FC4FF48063ADF8003004236946284626
:101AD0008DF80330FEF7AAFC104B01A80193FEF726
:101AE00065FC00234FF4402202940D4C02A92046CD
:101AF000CDE90332ADF81430FEF75EFD0122204639
:101B000040F22551FEF7C8FD01212046FEF7B6FD43
:101B100007B030BD0008014000020318250303018F
:101B20000038014010B540F225511448FEF7D3FDAE
:101B300078B11248FEF7CBFD114AB2F900101388B4
:101B4000002906DB5904C0B209D50A2802D00023B7
:101B5000138010BD6FEA43436FEA5343F8E70D2843
:101B600002D143F48043F3E7C3F30D0101339BB289
:101B7000044CC72B60541380E9D8EAE700380140D1
:101B8000C02B0020C22B0020002103E00A4B5B5831
:101B90004350043109480A4B42189A42F6D3094A85
:101BA00002E0002342F8043B074B9A42F9D3FEF7C8
:101BB000CBFBFEF703FE7047481C00080000002026
:101BC00020000020200000208C2C0020FEE703468F
:101BD0000244934200D1704703F8011BF9E70A441D
:101BE000914200F1FF3300D1704710B511F8014B5D
:101BF000914203F8014FF9D110BD0000F8B500BFC4
:101C0000F8BC08BC9E467047F8B500BFF8BC08BCDD
:041C10009E46704735
:101C14006C6564305F7461736B006C6564315F7410
:101C240061736B0073746172745F7461736B0049E8
:0C1C3400444C4500546D72205376630050
:041C4000590200083D
:041C44003102000861
:101C480000A24A040204060800000000010203047E
:101C580001020304060708091F000000AAAAAAAA8D
:0400000508001B894B
:00000001FF
