:020000040800F2
:1000000000000120410E00085D0700085F0700089E
:10001000610700086307000865070008000000008A
:10002000000000000000000000000000850E000835
:100030006707000800000000850E0008410C00085A
:10004000850E0008850E0008850E0008850E000844
:10005000850E0008850E0008850E0008850E000834
:10006000850E0008850E0008850E0008850E000824
:10007000850E0008850E0008850E0008850E000814
:10008000850E0008850E0008850E0008850E000804
:10009000850E0008850E0008850E0008850E0008F4
:1000A000850E0008850E0008850E0008850E0008E4
:1000B000850E0008850E0008850E0008850E0008D4
:1000C000850E0008850E0008850E0008850E0008C4
:1000D000850E0008C50D0008850E0008850E000875
:1000E000850E0008850E0008850E0008850E0008A4
:1000F000850E0008850E0008850E0008850E000894
:10010000850E0008850E0008850E0008850E000883
:10011000850E0008850E0008850E0008850E000873
:10012000850E0008850E0008850E0008850E000863
:1001300000000000000000000000000000000000BF
:1001400000000000000000000000000000000000AF
:10015000000000000000000000000000000000009F
:10016000000000000000000000000000000000008F
:10017000000000000000000000000000000000007F
:10018000000000000000000000000000000000006F
:10019000000000000000000000000000000000005F
:1001A000000000000000000000000000000000004F
:1001B000000000000000000000000000000000003F
:1001C000000000000000000000000000000000002F
:1001D000000000000000000000000000000000001F
:0401E0005FF8E0F1F3
:1001E4000348044B834202D0034B03B118477047C2
:1001F4001C0000201C000020000000000548064BE5
:100204001B1AD90F01EBA301491002D0034B03B110
:10021400184770471C0000201C000020000000004C
:1002240010B5064C237843B9FFF7DAFF044B13B13A
:100234000448AFF300800123237010BD1C0000208C
:1002440000000000880E000808B5054B1BB10549E5
:100254000548AFF30080BDE80840FFF7CFBF00BFFB
:100264000000000020000020880E000882B0002357
:10027400019300932C4A136843F4803313602A4B90
:100284001B6803F400330093019B01330193009B2B
:100294001BB9019BB3F5A06FF1D1234B1B6813F479
:1002A400003F06D001230093009B012B04D002B031
:1002B400704700230093F7E71C4B1A6842F01002C2
:1002C4001A601A6822F003021A601A6842F00202E5
:1002D4001A60A3F580535A685A605A685A605A687B
:1002E40042F480625A605A6822F47C125A605A6856
:1002F40042F4E8125A601A6842F080721A600A4B9B
:100304001B6813F0007FFAD0074B5A6822F00302EF
:100314005A605A6842F002025A60034B5B6803F069
:100324000C03082BF9D1C2E7001002400020024060
:1003340008B5FFF79BFF08BD08B5104B1A6842F0DB
:1003440001021A6059680E4A0A405A601A6822F07B
:10035400847222F480321A601A6822F480221A60AD
:100364005A6822F4FE025A604FF41F029A60FFF7A3
:10037400DFFF044B4FF000629A6008BD001002409A
:100384000000FFF800ED00E040F0BF6040F40030F2
:10039400014BD860704700BF00ED00E0C378F3B1B3
:1003A400144BDB68DB43C3F30223C3F1040C0F21BA
:1003B400D940427802FA0CF283780B4013431B01B4
:1003C4000278DBB20C490A4482F80033037803F064
:1003D4001F005B090122824041F823207047037803
:1003E40003F01F015B0901228A402033024941F8CE
:1003F4002320704700ED00E000E100E0042806D06F
:100404004FF0E022136923F00403136170474FF0A7
:10041400E022136943F004031361704730B5CB78CD
:1004240003F00F02964613F0100F03D091F802E088
:100434004EEA020E0B78FBB10568002301E042612D
:100444000133072B17D801229A40B1F800C032EAD1
:100454000C0CF5D19C004FF00F0C0CFA04FC25EAAF
:100464000C050EFA04F42543CC78282CE7D0482C4C
:10047400E6D10261E4E705600B88FF2B25D94568C6
:10048400002303E0CC78482C1CD00133072B1BD865
:1004940003F1080C012202FA0CF2B1F800C032EAAE
:1004A4000C0CF2D19C004FF00F0C0CFA04FC25EA62
:1004B4000C0C0EFA04F444EA0C05CC78282CE1D197
:1004C4004261DFE70261E0E7456030BD01617047EA
:1004D40010B4294B5B6803F00C03042B2BD0082BBE
:1004E4002CD013B1254B036001E0244B0360224957
:1004F4004B68C3F30313224CE25CD2B20368D340CB
:1005040043604A68C2F30222A25CD2B223FA02F226
:1005140082604A68C2F3C222A25CD2B2D340C360F2
:100524004A68C2F3813217498A5CD2B2B3FBF2F350
:10053400036110BC7047114B0360D8E70E4A53683F
:100544005268C3F38343023312F4803F04D10E4A4A
:1005540002FB03F30360CAE7074A526812F4003F40
:1005640004D0094A02FB03F30360C0E7034A02FB19
:1005740003F30360BBE700BF0010024000127A00DF
:10058400080000200400002000093D0021B1054AB4
:100594009369034393617047024A936923EA000312
:1005A400936170470010024030B587B004460D4691
:1005B400038A9BB2CA8823F440531343038283897A
:1005C4009BB2898828896A8901430A4323F4B0537A
:1005D40023F00C031343A381A38A9BB2AA8923F4B7
:1005E40040731343A38201A8FFF772FF1D4B9C4283
:1005F40024D0039BA28912F4004F21D103EB83037F
:1006040003EB83032A689200B3FBF2F3164AA2FBBE
:10061400031252091101642002FB1033A28912F45F
:10062400004F16D11B0132330F4AA2FB0323C3F33D
:1006340043130B439BB2238107B030BD049BD9E71E
:1006440003EB830303EB83032A685200B3FBF2F347
:10065400DCE7DB003233044AA2FB0323C3F3421377
:100664000B43E7E7003801401F85EB5129B183892B
:100674009BB243F400538381704783899BB223F474
:1006840000539BB283817047C1F3421C01F01F01E8
:1006940001238B40BCF1010F08D0BCF1020F07D03D
:1006A40014303AB102681343036070470C30F8E722
:1006B4001030F6E7026822EA03030360704780887B
:1006C400C0F308007047C1F3421201F01F0C01236C
:1006D40003FA0CF3012A0FD0022A11D0828A92B2B3
:1006E4001340090A012202FA01F1028892B20A4077
:1006F40053B15AB900207047828992B21340F0E78F
:10070400028A92B21340ECE7002070470120704740
:1007140080B500F09DFA00F025F84FF44070FFF723
:1007240033FE4FF4E13000F0F9FA0125084E0027BA
:10073400084CC6F894516420C4F8947100F0D0FABF
:10074400C6F894716420C4F8945100F0C9FAEEE735
:1007540000802142000023427047FEE7FEE7FEE7E7
:10076400FEE7704730B583B001214820FFF70EFF44
:100774002024ADF8044010238DF8073003238DF8AE
:1007840006300B4D01A92846FFF748FE21462846AE
:10079400FFF79CFEADF8044005F5406501A9284625
:1007A400FFF73CFE21462846FFF790FE03B030BD1C
:1007B400000C014030B40D68B5F1FF3F11D000F1D9
:1007C40008031C465B681A68AA42FAD963684B603E
:1007D40099608C606160086103680133036030BC18
:1007E40070470469F2E70369416882688A60416876
:1007F40051605A68824206D0002202611A68013AA6
:100804001A601868704782685A60F5E7074B1B68DE
:100814001B6823B9064B4FF0FF321A607047034B35
:100824001B68DB681A68024B1A6070478800002056
:100834003C00002070B504460D46234B1E68234B34
:1008440018680430FFF7CFFF48B9204B1B68DB6AF8
:1008540001229A401E490B6823EA02030B60B4F19B
:10086400FF3F0DD03444194B1B685C60A6421DD970
:10087400184B1868154B19680431FFF79BFF70BDBE
:10088400002DEFD0144A5168104B18688160186825
:100894008C68C4601868043060601868043088602C
:1008A4001B685A61136801331360E8E70B4B18683F
:1008B400064B19680431FFF77DFF094B1B68A342FF
:1008C400DDD9074B1C60DAE7540000200C0300203C
:1008D40050000020840000205C00002088000020DC
:1008E4003C000020024A136801331360704700BFC4
:1008F40038000020F8B54C4B1B68002B40F08D806D
:100904004A4B1C6801341C60ACB1494B1B68A342C0
:100914001ED90020474B1B68DB6A03EB83039A0054
:10092400454B9B58012B00D90120444B1B68002BDD
:1009340078D0012076E0424A1168424B1868106072
:100944001960414A136801331360FFF75FFFDCE766
:10095400002037E0364B4FF0FF321A60DAE7344BB1
:100964001A60D7E7D968516042E0002199621168A2
:1009740001391160DA6A01219140344E37683943F4
:1009840031602D4902EB82024FEA820C8C44DCF880
:1009940004209A609668DE6075609560DA6A02EBFE
:1009A400820C4FEA8C056E185E614D5901354FEA91
:1009B4008C0C41F80C50DA6A1E4B1B68DB6A9A42B5
:1009C40000D901201E4B1B681B68002BC2D01C4B96
:1009D4001B68DB68DB685A689442C0D35A699D6817
:1009E400D968A9609D684D6051681D1DA942B9D0A0
:1009F400002159611168013911609A6A002AB9D03D
:100A0400DE69196AB160DE694E60566803F1180147
:100A14008E42AAD1196A5160A7E70D4A13680133BF
:100A240013600020F8BD00BF3800002054000020EF
:100A34003C0000200C0300208C0000204400002017
:100A44008800002084000020400000205000002086
:100A54004800002038B500F0C1F8434B1A68013A49
:100A64001A601B68002B7AD1404B1B683BB90024E9
:100A740076E0196A516015E0D968516021E00023DD
:100A84003B4A1268002A47D0394BDB68DB689A6A14
:100A9400D869196A8160D8694860506803F11801FF
:100AA4008842E6D0002199621168013911605A69BF
:100AB4009868D9688160986848605168181D8142B7
:100AC400DAD000215961116801391160DA6A012113
:100AD4009140284C256829432160274902EB820272
:100AE40001EB820252689A609468DC6060609060F6
:100AF400DA6A02EB8200840001EB80005861085935
:100B040001300851D96A1D4A1268D26A9142B7D39A
:100B14001B4A01211160B3E70BB1FFF777FE194BB4
:100B24001C6884B9164B1C68D4B14FF0E0234FF015
:100B34008052C3F8042DBFF34F8FBFF36F8F01248E
:100B44000EE0013C07D0FFF7D5FE0028F9D00C4B8E
:100B540001221A60F5E70B4B00221A60E2E7002439
:100B640000F04CF8204638BD380000205800002022
:100B740070000020500000208C0000200C03002096
:100B8400440000204800002010B550B94FF0E02385
:100B94004FF08052C3F8042DBFF34F8FBFF36F8F14
:100BA40010BD0446FFF79EFE00212046FFF742FEDB
:100BB400FFF750FF0028F3D1E8E70000054B1B685E
:100BC40033B1054B1B680BB10020704702207047FE
:100BD400012070474C000020380000204FF0BF0374
:100BE40083F31188BFF36F8FBFF34F8F024A1368EB
:100BF40001331360704700BF18000020034A1368D4
:100C0400013B13600BB983F311887047180000206F
:100C140008B54FF0BF0383F31188BFF36F8FBFF3A1
:100C24004F8FFFF767FE28B14FF0E0234FF080525B
:100C3400C3F8042D002383F3118808BD08B5FFF71A
:100C4400BDFF012800D108BDFFF7E2FFFBE700006C
:100C540008B50420FFF7D2FB0D4B1B680D4AA2FB1D
:100C640003239B0C0C4A13704FF47A7202FB03F3B8
:100C74000A4A012111804FF0E022116941F002017A
:100C840011615361136943F00103136108BD00BF8F
:100C94000000002083DE1B43120300201003002009
:100CA40010B44FF0E0235C690C4A92F800C000FBDA
:100CB4000CFC9B69002104E0E01A024411446145E4
:100CC40009D21A464FF0E0239B699A42FAD0F3D92D
:100CD400D21A1144F3E710BC704700BF120300207E
:100CE40010B50446FFF76AFF012809D00A4B18889B
:100CF400A0420CD9084B1B88B4FBF3F203FB12444B
:100D04004FF47A7004FB00F0FFF7CAFF10BDB4FB88
:100D1400F0F0FFF739FFEDE71003002070B586B05F
:100D24000446012144F20400FFF730FC4FF4007341
:100D3400ADF8143003258DF8165018238DF81730AC
:100D44001D4E05A93046FFF769FB4FF48063ADF8EB
:100D5400143004238DF8173005A93046FFF75EFBE5
:100D640025238DF800308DF801508DF802500125AF
:100D74008DF803506846FFF711FB01940023ADF88A
:100D84000830ADF80A30ADF80C30ADF810300C2353
:100D9400ADF80E30094C01A92046FFF705FC2A46A0
:100DA40040F225512046FFF76FFC29462046FFF705
:100DB4005DFC06B070BD00BF000801400038014072
:100DC40008B540F225511A48FFF77DFC00B908BD6B
:100DD4001748FFF774FCC0B2164A1388B2F9002012
:100DE400002AF4DB13F4804F0CD00A2803D0114BF3
:100DF40000221A80EBE76FEA43436FEA53430D4A3C
:100E04001380E4E70D280DD0C3F30D020A4988547A
:100E140001339BB2074A1380C72BD8D9134600224B
:100E24001A80D4E743F48043024A1380CFE700BF1B
:100E3400003801401403002018030020002103E0BF
:100E44000A4B5B584350043109480A4B42189A42F2
:100E5400F6D3094A02E0002342F8043B074B9A42C6
:100E6400F9D3FFF769FAFFF753FC7047A80E00089F
:100E7400000000201C0000201C000020E0030020D3
:100E8400FEE70000F8B500BFF8BC08BC9E467047FA
:0C0E9400F8B500BFF8BC08BC9E467047D3
:040EA0004D020008F7
:040EA400250200081B
:100EA80000A24A040204060800000000010203042C
:0C0EB8000102030406070809AAAAAAAA5E
:0400000508000E41A0
:00000001FF
